:020000040800F2
:1000000000000220354800088148000881480008A7
:10001000814800088148000881480008000000006D
:1000200000000000000000000000000081480008FF
:10003000814800080000000081480008814800084D
:10004000814800088148000881480008814800086C
:10005000814800088148000881480008814800085C
:10006000814800088148000881480008814800084C
:10007000814800088148000881480008814800083C
:100080008148000881480008814800089530000830
:10009000993000088148000889300008814800082C
:1000A000814800088148000881480008814800080C
:1000B00081480008814800088148000881480008FC
:1000C00081480008814800088148000881480008EC
:1000D00081480008814800088148000881480008DC
:1000E00081480008814800088148000881480008CC
:1000F00081480008814800088148000881480008BC
:1001000081480008814800088148000881480008AB
:10011000814800088148000881480008814800089B
:10012000814800088148000881480008814800088B
:10013000814800080000000000000000A93000080D
:10014000AD300008814800089D3000088148000853
:10015000814800088148000881480008814800085B
:10016000814800088148000881480008814800084B
:10017000814800088148000881480008000000000C
:10018000000000008148000800000000000000009E
:1001900081480008000000000000000081480008BD
:1001A000000000000000000000000000814800087E
:1001B00081480008814800088148000881480008FB
:1001C0008148000810B5054C237833B9044B13B1AE
:1001D0000448AFF300800123237010BD48100020B5
:1001E00000000000949D010808B5034B1BB10349B2
:1001F0000348AFF3008008BD000000004C10002051
:10020000949D0108A3F5803A704700BF174B002B5F
:1002100008BF134B9D46FFF7F5FF00218B460F46A5
:100220001348144A121A08F0B9FF0E4B002B00D0E5
:1002300098470D4B002B00D0984700200021040068
:100240000D000D48002802D00C4803F03CFB08F0DC
:100250005DFD2000290003F0C5FD03F031FB00BF68
:100260000000080000000000D53D0008000002204A
:1002700048100020C0250020C738000800000000FA
:1002800010B5094B036003F1200280330446C0F827
:10029000BC20C0F8C030BC3007F020FE204607F07C
:1002A000FBF8204610BD00BFD0900108A0F1BC00B3
:1002B000E6E7A0F1C000E3E710B50949044609F0FC
:1002C00003FA18B9BDE8104001F0B2B8204609F0B1
:1002D00077FB20B12046BDE8104001F071B810BD99
:1002E0002C71010873B5002401A96846CDE90044CA
:1002F00001F01EF81449154807F014FE144913487C
:1003000007F010FE1349114807F00CFE019B4BB992
:1003100011490E4807F006FE10490C4807F002FE8E
:1003200002B070BD0E4E094D019BA342F4DD009A50
:1003300002EBC403314612F83420B3F902302846E8
:1003400007F0F0FD0134EFE731710108D81100200A
:100350005C7101083271010882710108B2710108F3
:100360009571010830B52D4985B0054609F0ACF905
:1003700020B905B0BDE83040FFF7B4BF2849284692
:1003800009F0A2F920B905B0BDE8304001F080B80D
:100390002449284609F098F920B905B0BDE8304055
:1003A00001F0B8B820490522284609F077FB044639
:1003B000F0B901901D4901AA681D09F00BF9012847
:1003C00010D103A902A8CDE9024400F0B1FFDDE994
:1003D0000213019AA3421BDD11F83400904213D09E
:1003E0000134F7E71249134807F09CFD05B030BD12
:1003F000284609F0E5FA0028F8D00F490D4805B065
:10040000BDE8304007F08EBDD0B200F0A1FFEDE7AF
:100410000A49084807F086FDE8E700BFDD710108DA
:10042000E2710108E9710108F1710108F771010831
:10043000FA710108D81100202372010861720108C5
:1004400070B51A4D1A4C05F1BC06284606F054FF4B
:10045000237890B193B9304607F052FDC0B20A2814
:10046000144B15D11A681449002082428854C4BF25
:100470000122227000221A60E7E743B101F07AF806
:1004800002280D480ED1FFF717FF0023237070BD1F
:100490000D28E7D01A68622AD7DC511C1960064B78
:1004A0009854D2E7FFF75EFFEFE700BF1C11002072
:1004B00068100020641000209010002083B54D4883
:1004C0004D4D4E4E4E4C4FF4E13106F001FF4D497B
:1004D0004B4807F027FD4C49494807F023FD4B499D
:1004E000474807F01FFD2B7853B1424C04F1BC057F
:1004F000204606F001FF90B3284607F001FDF7E71C
:100500003146204607F00EFD4149424F6A462046DB
:1005100007F025FD9DF800303B70013BDBB2FD2B61
:1005200004D93D49204607F0FDFCDCE73B49204665
:1005300007F0F8FC01AA3649204607F010FD9DF8A7
:100540000430374A13705A1ED2B2FD2AE9D83A78DD
:100550009A4201D13349E5E701232B70C3E72D4CC3
:10056000314D207800F058F92D4B207819782F4C18
:1005700001F008F82349224807F0D4FC2C49204810
:1005800007F0D0FC2B491E4807F0CCFC2A491C4838
:1005900007F0C8FC29491A4807F0C4FC2849184844
:1005A00007F0C0FC2749164807F0BCFC2649144850
:1005B00007F0B8FC1D4806F083F9244806F080F9DE
:1005C000B7EE008A00F086F9204606F0B9F907EE8A
:1005D000900AF4EEC87AF1EE10FA04DD00F0D0FFD4
:1005E000204606F0C6F9FFF72BFF284607F044FA2D
:1005F000E8E700BF1C110020F4100020A8720108D9
:10060000D8110020317101088F7201083271010880
:10061000F771010818110020C8720108FD72010865
:1006200019110020277301080AD7233CF810002075
:10063000547301086D7301088573010890730108F4
:10064000B7730108DF730108B27101087010002050
:1006500010B50446FFF714FE204603F09CFA20462E
:1006600010BDA0F1BC00F3E7A0F1C000F0E700006E
:1006700013B5124C4FF416530093032200230221AA
:10068000204606F079FA20460D4C0E4A0E4903F03A
:1006900015F9204606F07EF920460C4C0C49094A13
:1006A00003F00CF9204606F075F9064A0849204681
:1006B00002B0BDE8104003F001B900BF1C110020DA
:1006C000F8100020C80100208102000870100020EE
:1006D000A168000808B5074A074B12781B789342B7
:1006E00006D1064906481A4607F01CFC012008BD41
:1006F0000020FCE792130020CC010020FC730108CD
:10070000D8110020024B1870062000F0DDBA00BF9F
:10071000F611002038B50546FFF7DCFF0128044636
:1007200006D1054905482A4607F0FCFB204638BD9E
:10073000034B00241D70F9E73B740108D811002019
:100740009213002070B5104D2A788242044605D2DB
:1007500003460E490E4807F0E5FB2C780D4E0E4877
:100760002246314608F004FC2A780C4B121BD2B208
:100770001C702A702AB13119304608F0F9FB0120AB
:1007800070BD1046FCE700BFF8110020607401083E
:10079000D811002093170020F91100208E1300209B
:1007A00038B5054610460C46FFF7B4FF01280DD1B9
:1007B000072000F0A5FA48B1072000F0A1FABDE833
:1007C000384002460E490F4807F0ACBB192C2246B0
:1007D000294609D80C4808F0CBFB0C4B1C70BDE82F
:1007E0003840042000F070BA094808F0C1FB094BFA
:1007F0001A201C70FFF7A6FF072000F065FAEEE74D
:10080000C5740108D8110020F91100208E130020B2
:1008100093170020F811002010B50A4B0A4C002253
:100820001A70207000F066FAFFF754FF207800F08D
:10083000D7FA064800F05EFFBDE81040044800F01B
:100840005FBF00BF92130020CC010020A107000869
:10085000050700082DE9F0431A4D85B095F8009082
:100860009DF830801F46184B144699440E4600F000
:1008700029FA22460146484608F07AFB2A781349AD
:100880001348023A2244D2B243462A7007F04AFB88
:10089000012F02D0B8F1010F12D12A78039200F093
:1008A000E1FA029000F0D8FADDE902320090314618
:1008B000054800F033FF0020287005B0BDE8F08344
:1008C0000120FAE7F7110020931300202575010895
:1008D000D81100202DE9FF47AE4DAF4C2A78237880
:1008E0009A4205D0AD49AE4807F01CFB23782B7027
:1008F0002578012D00F0D780022D00F0F980002D21
:1009000040F0A581062000F0FBF978B1A54B1878DE
:1009100000F082FAB0FA80F0400900F015FF25706F
:10092000062004B0BDE8F04700F0D8B9032000F07D
:10093000E7F900284AD000F07FFA074600F082FA73
:10094000054600F083FA804600F092FA06462846F3
:1009500000F095F95FFA80F956BBDFF850A22846FF
:1009600000F0AEF99AF80030834221D0284600F01A
:10097000A7F99AF800308C490246894807F0D2FA64
:10098000284600F09DF9894A1378984208BF431C15
:10099000284608BF137000F093F90146844800F020
:1009A00078F983483A46032100F02CFA01230AE043
:1009B000CDF800903346424639462846FFF74AFFB5
:1009C000002EDDD0002323700320AAE7042000F0CE
:1009D00097F900282DD0754D764B2A781B78039215
:1009E0000720029300F08CF9B0FA80F04009DDE9AD
:1009F0000232714900907148714E00F051F9714B0B
:100A00003278187001466D4800F0FCF9327864487D
:100A1000FF2A1EBF2B7801332B706B4B00211970FE
:100A20002B786A49013B07F07DFA012323700420EB
:100A300077E7072000F064F9044650B1042000F085
:100A400043F91A20FFF77EFE002840F000810720BE
:100A500067E700F055F928B15D492246504807F094
:100A600061FA3EE0012000F04BF928B1584901221B
:100A70004B4807F057FA25E000F042F930B15449ED
:100A80004748022207F04EFA02204AE7052000F00C
:100A900037F9002800F0DB804E494148052207F075
:100AA00041FA05203DE7284600F02AF9064658B1EC
:100AB00000F0FEF9012803D0052000F021F900B173
:100AC0000220207001202CE700F01AF9002800F025
:100AD000BE803B4B1B78FF2B05D12846267000F0CB
:100AE0002BFE00201DE70223237000F021FAF8E717
:100AF000284600F005F9054628B300F0A3F905469D
:100B00002E4800F0DDF80646284600F0D9F8864267
:100B10000BD13149224807F005FA00F0BDF9002356
:100B20000120237000F008FEAEE7244800F0C8F86A
:100B30000290284600F0C4F8029A28490346184853
:100B400007F0F0F9A0E7052000F0DAF800284BD014
:100B50001D4E3378022B0CD9184800F0B1F820490B
:100B600002460F4807F0DEF92846257000F0E4FD44
:100B700097E71C490A4807F0D5F9114B0F481A7836
:100B8000104B197800F03EF93378013333700123AC
:100B9000237086E7F5110020F4110020507501083C
:100BA000D8110020F6110020757501088F13002060
:100BB000C11200208E130020F9110020C61200205F
:100BC000921300209013002091130020C17501089A
:100BD000DE750108E2750108147601083676010811
:100BE00072760108B0760108032000F089F8054606
:100BF00000B300F021F9074600F024F9054600F0A3
:100C000025F9814600F034F90646284600F037F809
:100C10005FFA80F826B1CDF8008033464A46CBE62D
:100C2000DFF834A0284600F04BF89AF800308342F1
:100C3000F1D09BE600F064F810B106492A460DE7B2
:100C4000012000F05DF810B10249012210E704B064
:100C5000BDE8F087CA7601088F130020024B1A788E
:100C6000024B1A70704700BFF4110020F5110020EC
:100C70000078013801288CBF0020012070470078DF
:100C8000431E5842584170470078B0FA80F040093E
:100C90007047002303700123417083700320704765
:100CA00010B51C469DF808304270012B18BF022376
:100CB00003702246023008F05BF9A01CC0B210BDE0
:100CC0004078704702307047034A012303FA00F06E
:100CD0001368184310607047941B002004490122D8
:100CE0000B6802FA00F023EA00030B60704700BFB4
:100CF000941B0020014B00221A607047941B0020B7
:100D0000012303FA00F0024B1B681840704700BF34
:100D1000941B0020054B1B785A1E012A02D8002084
:100D2000FFF7D2BF0BB90120FAE77047991B0020EB
:100D3000F7B501931E460B780093074613460C4601
:100D400015461E4902461E4807F0ECF808F096FAD0
:100D500007EE900AFAEEE07AF5EEC07AF1EE10FABC
:100D600022DD2A462146174808F002F9164B1F706B
:100D7000164B1D7002F0A8F8154B187002F09EF883
:100D8000144B1880144B20461E70FFF771FF28B1DA
:100D9000032003B0BDE8F040FFF796BF2046FFF701
:100DA00073FF40B10220F4E70C49054803B0BDE8E9
:100DB000F04007F0B7B803B0F0BD00BFFF76010800
:100DC000D81100209C1B00209B1B0020D01B002062
:100DD0009A1B0020CE1B0020981B002038770108AA
:100DE00010B50446002006F061FF08F03FFA2046E7
:100DF000024A0349BDE8104002F002B8310D000874
:100E0000150D000810B5044602F01CF8014B2278BD
:100E10001A7010BD991B002010B502F05BF8044653
:100E200020B102460249034807F07CF8204610BD75
:100E300047770108D8110020014B1878704700BF90
:100E40009B1B0020004870479C1B0020014B18781A
:100E5000704700BFD01B0020014BB3F90000704762
:100E6000CE1B0020014B93F9000070479A1B002015
:100E7000014B1878704700BF981B00200368184783
:100E80000B68036070477047024B002205201A7000
:100E9000FFF71ABFD11B002008B5034805F0B9FDC4
:100EA000024B00221A7008BDD81B0020D11B002065
:100EB000014B1878704700BFD11B0020C36810B5E4
:100EC00004460BB19B689847204610BD38B50546CF
:100ED000064B45F8283B044605F09BFD2846FFF7E6
:100EE000EDFF204605F0D2FC204638BD24900108D5
:100EF00010B50446FFF7EAFF204602F04CFE2046FC
:100F000010BD000010B5034B03600446FFF7DEFF81
:100F1000204610BD9890010838B5CB6804460D46B0
:100F20000BB15B689847EB68E360204638BD000072
:100F300030B589B008F0A2F91022044600216846B5
:100F400008F02CF91F4B009369461F4B039304A82C
:100F5000FFF7E2FF002C04F00104B8BF6442013443
:100F6000E4B207EE904A9FED197AF8EE677A67EEE1
:100F7000877A17EE900A15F0CDF805460C4606F074
:100F8000D9FA134B5A6B22B993F838300BB106F0EB
:100F900055F81048FFF792FF04A90E48FFF7BCFF71
:100FA0002A4623460A4805F01CFD06F0D9FA04A893
:100FB000FFF784FF6846FFF781FF074B01221A7095
:100FC00009B030BD890E00087C77010800247449FF
:100FD000D81B0020001C0020D11B002010B50446A7
:100FE000FFF790FF204602F0D6FD204610BD00001E
:100FF00010B50C4C204605F021FC20460A4B40F869
:10100000283B1022002108F0C9F8012384F8383069
:10101000064B23602046064A0649BDE8104002F010
:101020004DBC00BFD81B00202490010898900108F7
:10103000C8010020050F000870470000F8B51248ED
:10104000124F05F08DFCDFF848C00546002242F241
:10105000107E3C68944215DD0CEBC2035968691A96
:1010600071450DD91646013CB44203F1080305DD74
:1010700093E80300013603E90300F5E73C60E8E785
:101080000132E6E7F8BD00BF601C0020D81C00203C
:10109000841C002008B538B9074B08491A7808485D
:1010A000BDE8084006F03EBF0649054806F03AFF95
:1010B000054B06491A78F2E7181C002088770108CA
:1010C000D8110020B3770108DD1C0020D477010877
:1010D000F0B59DB00446BDF9886015465AB1027856
:1010E000222A00F0AD8008D8202A57D0212A00F00B
:1010F0008C80102A19D01DB0F0BD302A00F0B380CA
:10110000402AF8D1022DF6D96A4D2B78022BF2D164
:10111000694C437822789A42EDD16849684806F0D4
:1011200001FF00232B702370E5E7022DE3D9654B07
:1011300082781B789A42DED116F11E0FDBDB624FFC
:10114000624C39684578002081420DDD14F830305A
:10115000AB4207D104EBC0045D48668005F000FC9B
:101160006060C8E70130EFE70A29C4D0574C5848FF
:1011700004F8315004EBC1014E8005F0F1FB3B68EF
:10118000544904EBC304013360604D483B602A4678
:1011900033461DB0BDE8F04006F0C4BE022DAAD90A
:1011A000484B1A7883789342A5D1424D44782A78E7
:1011B000A2B903232B70484B484941481C70224672
:1011C00006F0B0FE46493E4806F0ACFE2A78454996
:1011D0003B481DB0BDE8F04006F0A4BE22228DF8C9
:1011E0000C200321224603A88DF80D308DF80E4007
:1011F00000F08CFA22463C49314806F093FE2A78EA
:1012000038492F4806F08EFE75E7022D7FF673AF42
:10121000284D2B78012B7FF46EAF274A4378127844
:101220009A427FF468AF31492548019202232B701E
:1012300006F078FE019A2E49214806F073FEC5E7B4
:10124000022D7FF658AF1B4D2B78012B7FF453AF47
:10125000194B41781A788A427FF44DAF00212970EA
:1012600019702449E8E7032D7FF645AF114E337816
:10127000022B7FF440AF134B82781B789A427FF4A5
:101280003AAF0D4A437817789F427FF434AF00217C
:10129000602204A8039107F081FFEA1EE11C03A865
:1012A00007F066FE3A461449054803AB06F03AFEDD
:1012B0003278A5E7DD1C0020D41C0020F978010855
:1012C000D8110020181C0020D81C0020841C0020ED
:1012D000601C0020F4770108DC1C00201E78010847
:1012E00043780108D47701085F78010896780108EF
:1012F000B4790108BB780108E778010807B5102325
:101300008DF80430074B1B788DF80530064BFF2213
:101310001B788DF80630032101A800F0F7F903B01F
:101320005DF804FB181C0020801C0020FFF7E6BFBE
:1013300038B505460C46FFF781FE034B2B60034B87
:101340001B68236038BD00BF841C0020D81C00200F
:1013500037B5144D2B78044633B11349134803B005
:10136000BDE8304006F0DEBD20238DF80430104B80
:101370008DF806001B788DF8053001232B700D4B7E
:1013800002461870032101A800F0C0F922460A495C
:10139000064806F0C7FD2A780849044806F0C2FD51
:1013A00003B030BDDD1C00201F790108D8110020DA
:1013B000181C0020D41C002045790108D4770108AE
:1013C00030B5164B1B78022B9DB006D0144915483A
:1013D0001DB0BDE8304006F0A5BD30238DF80C30BF
:1013E000114B124D1B788DF80D302B788DF80E3087
:1013F000019008F0E5FA6028A8BF60200199044632
:1014000002460DF10F0007F0B3FDE11C2A78C9B2C6
:1014100003A800F07BF91DB030BD00BFDD1C00202B
:101420006F790108D8110020181C0020D41C00205E
:1014300037B5114D2B78022B1BD140230F4C8DF863
:1014400004300F4B22781B788DF80530032101A85A
:101450008DF8062000F05AF922780A490A4806F069
:1014600061FD2A780949084806F05CFD00232B70CD
:10147000237003B030BD00BFDD1C0020D41C002051
:10148000181C00208A790108D8110020D47701089F
:1014900037B5184C2178032920D1174D2A78EAB1A5
:1014A00021238DF80430154B8DF806201B788DF81C
:1014B000053001A800F02AF9114B2A781A7002238E
:1014C00023701049104800232B7006F02BFD227862
:1014D0000E490D4806F026FD03B030BD0C490A4800
:1014E00006F020FD22780949074803B0BDE83040E6
:1014F00006F018BDDD1C0020DC1C0020181C00209C
:10150000D41C0020AD790108D8110020D47701083F
:10151000EE79010837B5114D2978032917D1104C00
:101520002278A2B122238DF804300E4B8DF80620CC
:101530001B788DF8053001A800F0E8F800230A496F
:101540000A482B70237006F0EDFC03B030BD08494B
:10155000064803B0BDE8304006F0E4BCDD1C0020C6
:10156000DC1C0020181C0020147A0108D81100206F
:10157000337A0108014B1878704700BFDD1C00204A
:10158000FFF75CBDF0B52A4B2A4E2B4F2B4D307028
:1015900000241C702A4B2B481C6089B039702C70B9
:1015A00000F096F8284800F099F8284800F09CF8D8
:1015B000274805F085F910222146684607F0EEFD20
:1015C000244B00936946244B039304A8FFF7A4FC23
:1015D00005F0B0FF214B5A6B22B993F838300BB1AC
:1015E00005F02CFD1E48FFF769FC04A91C48FFF715
:1015F00093FC1C4A1948002305F0F3F905F0B0FFED
:1016000004A8FFF75BFC6846FFF758FC164917482B
:1016100006F088FC32783B781549144806F082FCC5
:101620002A781449114809B0BDE8F04006F07ABCA8
:10163000D41C0020181C0020801C0020DD1C002071
:10164000D81C0020D110000839100008951000089F
:10165000601C00202D1300087C770108201C00204E
:10166000481C0020C0C62D005A7A0108D81100205D
:101670007B7A0108D477010810B50F4C204605F09D
:10168000DDF820460D4B40F8283B1022002107F0E2
:1016900085FD012384F838302046094C094A0A495F
:1016A00002F00CF9204605F075F92046054A074975
:1016B000BDE8104002F002B9201C0020249001086F
:1016C000601C0020C8010020CD0E0008A1680008A1
:1016D000014B1860704700BFE41C0020014B1860EC
:1016E000704700BFE01C0020014B1860704700BF2E
:1016F000EC1C0020014B1860704700BFE81C002064
:10170000014B1860704700BFF01C0020024B1B68A3
:1017100003B11847704700BFE81C002030B4054CE7
:10172000BDF9085024681CB10295A44630BC60473E
:1017300030BC7047E41C0020024B1B6803B1184703
:10174000704700BFE01C0020024B1B6803B1184724
:10175000704700BFEC1C00200FB407B5064B04AA6D
:101760001B6852F8041BD86801920BF05FFB03B0B2
:101770005DF804EB04B0704774060020002000F010
:101780005BBF00002DE9F041BDF81C50B5F5806F3E
:1017900006460C4690461F4606D322482946FFF7C8
:1017A000DBFF0620BDE8F081022000F0A1FC08B1BB
:1017B0000720F7E73146022000F0F6FC4FFA88F1E7
:1017C000022000F02DFD3946022000F047FD069969
:1017D000022000F061FD2146022000F0C7FC8EB916
:1017E0000B3C012C12D80121022000F0A1FC7DB994
:1017F0000121022000F06EFD00F0D6FD0130D7D0AF
:101800000020CFE7012E01D10C2CECD00021EBE71A
:101810000021022000F05EFD2946022000F078FD44
:10182000EAE700BF957A01087047000084B038B538
:1018300004AC84E80F000220DDE9085400F058FCF5
:1018400020B10720BDE8384004B070470C2C15D9F2
:1018500021461148FFF780FF0C21022000F086FC92
:10186000A5B90B3C012C15D80121022000F060FC29
:1018700000F09AFD0130E4D00020E3E7052CEFD81A
:1018800021460548FFF768FF0621E6E7012D01D153
:101890000C2CE9D00021E8E7257B01080FB407B53F
:1018A000064B07491B6805AAD86801920BF0BEFADF
:1018B00003B05DF804EB04B0704700BF740600206D
:1018C0004E7B010884B010B502AC84E80F009DF88F
:1018D0000D10012905D0BDE81040254804B0FFF7E0
:1018E000DDBF9DF8293033205BB301F009F840F0EB
:1018F0004101C9B2332000F0F8FF19213B2000F06C
:10190000F4FF9DF827309DF82A402BB31D211120AC
:1019100000F0EBFF402000F0F3FF00F03301402027
:1019200000F0E3FF00210F2000F0DFFF00210D2079
:1019300000F0DBFFD4B10520BDE8104004B001F099
:1019400017B800F0DDFF00F0BE0141F001013320C7
:1019500000F0CBFF1D21D1E71F21112000F0C5FFB2
:10196000402000F0CDFF00F03F01D8E70620E3E77C
:101970004E7B010884B02DE9F04106AC84E80F00ED
:101980000898BDF832609DF83450BDF842700B9C49
:10199000DDF8288000F0CCFF1D2000F0B1FF9DF89D
:1019A00031309DF8301041EAC3019DF8363041EAEC
:1019B000881141EA430141EA8501C9B21D2000F0C6
:1019C00094FF1E2000F09CFFC7F3012100F00C00E3
:1019D00041EA04110143C9B21E2000F086FFF9B2AA
:1019E0001F2000F082FF310A202000F07EFFF1B2BC
:1019F000212000F07AFF25B19DF83510222000F05B
:101A000074FF9DF837306BB14B2000F079FF60F028
:101A10007F01C9B24B2000F068FF9DF838102420E8
:101A200000F063FF062C4FF031000FD100F068FF8B
:101A300000F0F80141F00501312000F056FF0C21C3
:101A4000BDE8F041372004B000F04FBF00F058FF70
:101A500000F0F80141F00301312000F046FF0A21B7
:101A6000EEE78021122000F040BF4021122000F05C
:101A70003CBF07B5122000F043FF8DF807009DF82A
:101A80000700C0F3401003B05DF804FB20211220D2
:101A900000F02BBF08B5192000F032FF030643BF4A
:101AA0004042C0F38500404240F3870008BD84B047
:101AB00010B502AC84E80F009DF938401A2000F000
:101AC0001FFF002CB8BF8B3C4FEA2013B8BF001992
:101AD000BDE81040A8BF8B38184400B204B070476E
:101AE00038B50546132000F00BFF04460146284692
:101AF00000F016FF204638BD0FB407B5064B04AA08
:101B00001B6852F8041BD86801920BF08FF903B0E0
:101B10005DF804EB04B070477406002008B528B9DE
:101B20000848FFF7E9FF4FF0FF3008BD402905D90D
:101B30000548FFF7E1FF6FF00100F6E7BDE8084058
:101B400000F0CEBD8D7B0108B97B0108F8B50746D2
:101B500001200D4614461E4600F0CAFA08B10720BF
:101B6000F8BD3946012000F03DFB2946012000F078
:101B70001BFB71B2012000F053FBBDF818100120CF
:101B800000F06CFB0799012000F086FB2146012044
:101B900000F0ECFA65B90B3C012C0DD801210120B5
:101BA00000F0C6FA00F0D2FB0130D8D00020D7E711
:101BB000012D01D10C2CF1D00021F0E784B038B513
:101BC00004AC84E80F000120DDE9085400F090FA2D
:101BD00020B10720BDE8384004B070479DF91C00D3
:101BE00000F010FC50BB012000F082FA0028F0D178
:101BF0000C2C15D921461248FFF77EFF0C2101203D
:101C000000F0B4FAA5B90B3C012C15D80121012034
:101C100000F08EFA00F09AFB0130DAD00020D9E70C
:101C2000052CEFD821460648FFF766FF0621E6E7B8
:101C3000012D01D10C2CE9D00021E8E70120C9E7F2
:101C4000257B01080FB407B5064B07491B6805AA99
:101C5000D86801920BF0EAF803B05DF804EB04B029
:101C6000704700BF74060020F37B010884B070B594
:101C700004AC84E80F0009209DF9404000F040FECC
:101C800006465A2000F03CFE9DF8103003F0FD039C
:101C9000012B14BF00238023054606F07F00184364
:101CA000030600F0F00127D5112CCBBF45F0070546
:101CB00005F0F805EDB245F0040505F00703072B24
:101CC00012D1142CA8BF1424052CB8BF0524631FFF
:101CD0001943C9B2092000F008FE2946BDE870404A
:101CE0005A2004B000F001BE112CA8BF1124022C10
:101CF000B8BF0224A31EEBE70E2CA8BF0E2444EAB3
:101D0000E47401342143E4E784B008B50DF1080C14
:101D10008CE80F009DF80D10012905D0BDE80840A2
:101D2000124804B0FFF78EBF9DF827309BB1F52114
:101D3000112000F0DAFD402000F0E2FD00F0330158
:101D4000402041F0400100F0D0FDBDE808400320F4
:101D500004B000F00DBEF721112000F0C6FD4020B8
:101D600000F0CEFD00F03F01EAE700BFF37B010881
:101D700084B02DE9F0418AB010AC84E80F009DF9E1
:101D80004C30089314AD0FCD6C46159EBDF85A70BB
:101D9000DDF850800FC495E80F0084E80F0010AB09
:101DA0000FCBFFF763FF129800F0C2FD9DF85F3084
:101DB0006BB14B2000F0A4FD60F07F01C9B24B2055
:101DC00000F093FD9DF86010242000F08EFD1D2092
:101DD00000F096FD9DF859309DF8581041EAC30176
:101DE0009DF85C3041EA881141EA83019DF85E303C
:101DF00041EA4301C9B21D2000F077FD1E2000F02A
:101E00007FFD00F00F0141EA0611C9B21E2000F06B
:101E10006CFD390A202000F068FD2120F9B200F0A5
:101E200064FD062E4FF0310010D100F069FD00F086
:101E3000F80141F00501312000F057FD0C21372059
:101E40000AB0BDE8F04104B000F04FBD00F058FD0D
:101E500000F0F80141F00301312000F046FD0A21B5
:101E6000EDE70821122000F040BD08B568B133202D
:101E700000F046FD00F0BE01332000F036FD1921D0
:101E80003B20BDE8084000F030BD332000F038FDB5
:101E900000F0BE0141F00101332000F026FD1D21BC
:101EA000EEE738B5044622200D4600F01EFD002165
:101EB0000E2000F01AFD00210D2000F016FD01207B
:101EC00000F01EFD30F0F80304D100F07FFD01208A
:101ED00005F0E0FD29462046BDE8384000F01BBD76
:101EE0000FB407B5064B04AA1B6852F8041BD86848
:101EF00001920AF09BFF03B05DF804EB04B0704759
:101F00007406002010B50A4C21788142024605D0A3
:101F10000848FFF7E5FF4FF0FF3004E0022001F032
:101F200003F808B9207010BD0348FFF7D9FFF2E7A6
:101F3000681D0020278401087D84010808B5044835
:101F400004F067FD00F045FD024B01221A7108BD47
:101F5000F81C0020381D002013B5174C2379022BE4
:101F600003D0032B19D002B010BDFFF75DFCFFF7C3
:101F7000E5FF032000F0D8FF012808D000230F4A16
:101F80000093146819461A460120A047EBE70C4855
:101F900002B0BDE81040FFF7A3BF204600F05CFD93
:101FA00094F8280000F049FD0123237102B0BDE838
:101FB000104000F0E9BF00BF381D00206C1D00205C
:101FC000FD8301082DE9F041354C267988B046B1F2
:101FD00034483146FFF784FF4FF0FF3008B0BDE8CA
:101FE000F081314B1860314B31481960FFF778FFB1
:101FF0004FF4807006F056FF2E4B186028B92E481B
:10200000FFF76EFF6FF00100E8E74FF4FA626262DB
:102010000E2222730B22294B626108224FF0010825
:10202000A360628304230522204684F82030628561
:10203000237084F805802677E67784F81E8084F87C
:102040002160266184F81980667784F8228084F8FC
:10205000288000F001FD2546014605F8100B1848C0
:10206000FFF73EFF0FCD6F460FC795E80F0087E8DB
:102070000F0094E80F00FFF7A1FDA5F1100CBCE8DC
:102080000F006F460FC795E80F0087E80F0094E830
:102090000F00FFF7CBFB84F8048030469EE700BFBB
:1020A000381D0020F47C0108701D00206C1D0020EC
:1020B000457D0108F41C0020727D01082021F636C0
:1020C000AC7D010808B5042000F02EFF012805D1E1
:1020D0000648FFF705FF4FF0FF3008BDFFF72EFF62
:1020E000022000F021FF0020F7E700BFC27D0108B9
:1020F00038B5054618B90A48FFF7F2FE05E0094C65
:10210000217829B10848FFF7EBFE4FF0FF3004E0DB
:10211000084600F009FF08B9257038BD0348EBE711
:10212000D2810108681D00200F8201085282010837
:1021300038B504460D4600F021FF0128084B06D1B2
:102140001A78A24203D1074B00201D7638BD0648FD
:102150001A782146FFF7C4FE4FF0FF30F6E700BFC4
:10216000681D0020381D00207381010838B5044621
:102170000D4600F003FF0128084B06D11A78A24251
:1021800003D1074B00205D6138BD06481A7821460F
:10219000FFF7A6FE4FF0FF30F6E700BF681D0020F6
:1021A000381D00201481010838B504460D4600F0A2
:1021B000E5FE0128084B06D11A78A24203D1074B4D
:1021C00000201D6138BD06481A782146FFF788FEB9
:1021D0004FF0FF30F6E700BF681D0020381D0020DB
:1021E0008682010838B504460D4600F0C7FE012876
:1021F000084B06D11A78A24203D1074B00201D7369
:1022000038BD06481A782146FFF76AFE4FF0FF30C6
:10221000F6E700BF681D0020381D0020987F0108E8
:1022200038B504460D4600F0A9FE0128084B06D13A
:102230001A78A24203D1074B00205D7638BD0648CC
:102240001A782146FFF74CFE4FF0FF30F6E700BF4B
:10225000681D0020381D0020B580010838B50446EF
:102260000D4600F08BFE0128084B06D11A78A242D9
:1022700003D1074B00205D8338BD06481A782146FC
:10228000FFF72EFE4FF0FF30F6E700BF681D00207D
:10229000381D0020DF82010838B504460D4600F0E5
:1022A0006DFE0128084B06D11A78A24203D1074BD4
:1022B00000209D6038BD06481A782146FFF710FEC1
:1022C0004FF0FF30F6E700BF681D0020381D0020EA
:1022D0009F83010838B504460D4600F04FFE0128E3
:1022E000084B07D11A78A24204D1074B002083F88B
:1022F000225038BD05481A782146FFF7F1FD4FF00E
:10230000FF30F6E7681D0020381D002041830108DA
:1023100038B504460D4600F031FE0128084B06D1C1
:102320001A78A24203D1074B00205D8538BD0648CC
:102330001A782146FFF7D4FD4FF0FF30F6E700BFD3
:10234000681D0020381D002058800108F0B589B0B4
:1023500000F014FE0128114B18D11F78012F15D160
:102360000F4E06F1100500F037FB0FCD6C460FC481
:1023700095E80F0084E80F0096E80F00FFF7F8FCDF
:102380003846FFF7BFFD002009B0F0BD05481978B9
:10239000FFF7A6FD4FF0FF30F6E700BF681D0020F5
:1023A000381D0020347F0108F0B589B000F0E6FD4B
:1023B0000128114B18D11F78022F15D10F4E06F1AD
:1023C000100500F009FB0FCD6C460FC495E80F0017
:1023D00084E80F0096E80F00FFF7CCFA3846FFF7C5
:1023E00091FD002009B0F0BD05481978FFF778FD90
:1023F0004FF0FF30F6E700BF681D0020381D0020B9
:10240000D07E0108F0B58BB0044600F0B7FD01287E
:10241000104B17D11F78012F14D10F4E089406F1DD
:1024200010050FCD6C460FC495E80F0084E80F002F
:1024300096E80F00FFF71AFC3846FFF763FD00200F
:102440000BB0F0BD05481978FFF74AFD4FF0FF309B
:10245000F6E700BF681D0020381D0020F47F01084A
:102460000E4B1B79022B13B510D1FFF7FAFAFFF7C9
:1024700065FD032000F058FD012809D00023084A1B
:102480000093146819461A460120A04702B010BDF7
:10249000044802B0BDE81040FFF722BD381D0020FF
:1024A0006C1D0020EA7D01082DE9F041454E34798C
:1024B000022C8AB067D1FFF7D8FAFFF7DAFA0128C1
:1024C00029D1FFF7E3FA96F82250ADB9FFF736FDB0
:1024D000032000F029FD012808D03B4B00951E6821
:1024E0002A462B4629462046B04711E037480AB015
:1024F000BDE8F041FFF7F4BC00F040FD0328F5D142
:102500000023314A0093156819461A462046A84709
:102510000AB0BDE8F081FFF7BDFA06F1100508909A
:1025200007460FCD6C460FC495E80F0084E80F00F6
:1025300096E80F00FFF7BBFA254C80462068FFF7AE
:10254000CFFA96F8226005468EB9FFF7F7FC032014
:1025500000F0EAFC012808D01B4B00971F68216897
:1025600043462A463046B847D2E71A48BFE700F04C
:1025700005FD0328F9D1144B00971E6821684346D6
:102580002A460020B0E7032C14D1134804F041FA86
:10259000FFF767FCFFF7D2FC204600F0C5FC0128DE
:1025A00006D00E4B1B6800200AB0BDE8F04118476A
:1025B0000B489CE70B4821460AB0BDE8F041FFF705
:1025C0008FBC00BF381D00206C1D00202D7C010831
:1025D000F41C0020697C0108F81C0020701D0020FC
:1025E000A47C0108D87C01082DE970430446994673
:1025F0000D46904604F09EFF636B23B994F8383083
:102600000BB104F01BFD04F12806AE420BD030469E
:10261000FEF754FC3EB1EB681BB15B6829463046BF
:102620009847EB68636342464B46204604F0D9F96D
:10263000BDE8704304F094BFF0B506468DB00120AC
:1026400000F072FC012806D11E48FFF749FC4FF04C
:10265000FF300DB0F0BD1C4B1C4F18684FF480725A
:10266000002107F1100506F099FD0FCD6C460FC44F
:1026700095E80F0084E80F0097E80F00FFF722F9B4
:1026800002233B71E6B11022002108A806F086FD66
:102690000F4B089330460F4B0B9313F049F9002270
:1026A0000D4B13F0BFF913F055FD02460B460B48D6
:1026B00008A9FFF799FF08A8FEF700FC0020C8E76B
:1026C0003046C6E7197E0108F41C0020381D0020A2
:1026D000591F00087C77010800408F40F81C00203B
:1026E000F0B5304C2379032B8FB006460D4606D14A
:1026F0002D48FFF7F5FB4FF0FF300FB0F0BD042081
:1027000000F012FC0128F3D0FFF718FC0A2005F0B6
:10271000C1F9022000F008FC012000F005FC0128AE
:1027200001D12248E5E763791BB1012B03D00027D3
:102730000CE01F48DDE794F82100FFF796FB2946DF
:10274000304684F82E50FFF7ACFB676A194E0897A5
:102750000FCE6D460FC596E80F0085E80F0094E890
:102760000F00FFF7D1FA0323102200210AA82371DA
:1027700006F014FD104B0A933846104B0D9313F0DE
:10278000D7F800220E4B13F04DF913F0E3FC02468C
:102790000B460C480AA9FFF727FF0AA8FEF78EFB95
:1027A0000020AAE7381D0020407E0108707E010845
:1027B000977E0108481D0020591F00087C770108FA
:1027C00000408F40F81C002010B50C4C204604F04F
:1027D00035F820460A4B40F8283B1022002106F02D
:1027E000DDFC012384F83830064B23602046064A7E
:1027F0000649BDE8104001F061B800BFF81C002098
:102800002490010898900108C8010020050F0008D5
:1028100010B50446044B40F8B83BD4F8C4300BB1B3
:102820009B689847204610BDB49101080FB407B5C6
:10283000064B07491B6805AAD86801920AF0F6FA08
:1028400003B05DF804EB04B0704700BF74060020CD
:10285000E0840108F8B50D4C0D4F23681646E26878
:102860001B040D46136040F08001094804F014FB7E
:10287000013D2E44B54205D015F8011F384604F03D
:102880000BFBF7E7A36822681A60F8BD301E002032
:10289000681E0020F8B50E4C0E4F23681646E268FD
:1028A0001B040D46136000F07F010A4804F0F4FA9F
:1028B000013D2E44B54206D00021384604F0ECFA22
:1028C00005F8010FF6E7A36822681A60F8BD00BF9B
:1028D000301E0020681E002010B50446FFF798FF48
:1028E000204601F058F9204610BD07B502AB012281
:1028F00003F8011D1946FFF7ADFF03B05DF804FBB7
:1029000007B501220DF10701FFF7C4FF9DF807008D
:1029100003B05DF804FB0A4601460020FFF79ABFAA
:102920000A4601460020FFF7B5BF00000000000086
:1029300010B512F0FDFF0CA3D3E9002313F09CF9AE
:1029400013F048FB0446C0F307410620FFF7CDFF14
:10295000C4F307210720FFF7C8FFE1B20820BDE854
:102960001040FFF7C2BF00BF0000000080844E404F
:10297000144910B50A78044690B932B901230B7096
:10298000114BDA681B681B0413600120FFF7B8FFC6
:1029900000F0F80121430120BDE81040FFF7A5BF7A
:1029A000094B2AB11A6800200870D96812040A601D
:1029B000032C1A6803D0DB6812041A60E5E79B68F1
:1029C000FBE700BF441F0020141E00200120FFF77A
:1029D000CFBF0020FFF7CCBF10B504460120FFF7A2
:1029E0008FFFC0F3C010844226D0012C13D0FFF714
:1029F000F0FF0120FFF784FF00F07F010120FFF7C7
:102A000074FF00214020FFF770FF30214120BDE816
:102A10001040FFF76ABFFFF7DCFF2046FFF770FFAB
:102A200060F07F01C9B22046FFF75FFF0021402020
:102A3000FFF75BFF0021E9E710BD10B50446012058
:102A4000FFF7CAFF2CB134213920BDE81040FFF751
:102A50004CBF1221F8E700002DE9FF47594C05460D
:102A600004F068FD0121204600F000FC04F078FD30
:102A70002368E2681B041360012005F00BF804F0E2
:102A800059FD2046002100F0F1FB04F069FD06200D
:102A900005F000F82E784C4C042E1CD104F04AFDB1
:102AA0000021204600F0E2FB04F05AFD012004F072
:102AB000F1FF63681A6823681A4214BF01260026D2
:102AC00004F038FD2046012100F0D0FB04F048FD61
:102AD000012004F0DFFF2368E2683C483C4C1B0403
:102AE00013603C4B9A681B6813600821002204F0B5
:102AF000B1F9394804F0C0FF0020FFF739FF102278
:102B0000ACBB2146684606F049FB69463348344C65
:102B100004F0AFF86846FEF7D1F910227CBB2146DD
:102B2000684606F03BFB69462E48DFF8C8802E4C0D
:102B300004F09FF86846FEF7C1F94FF0030900233F
:102B40005F1CDBB2D8F80020B2FBF9F29A421ED922
:102B500003EB430304EB030AE05CFFF73DFF9AF845
:102B600002109AF80100FFF7C0FE3B46E8E700219B
:102B7000684606F013FB1D4B00940393C5E7002144
:102B8000684606F00BFB194B00940393CBE768797A
:102B9000174CFFF721FF95F82800FFF74EFF422062
:102BA000FFF7AEFE38B92046FFF740FE4FF07E50EB
:102BB00004F062FFF3E7A868FFF7BAFE304604B0FE
:102BC000BDE8F0874C1E0020141E0020681E002067
:102BD000A9240008301E0020CDCCCC3D741D00205F
:102BE00061240008C41D0020AD8401087C77010821
:102BF000E0840108D001002073B5224D224C234E01
:102C00000A21284603F0DAFF2846214D22463146A4
:102C100000F054FE1321284603F0D0FF224631462F
:102C200028461C4D00F04AFE4FF0FF330093062269
:102C300005230721284604F061F922461649284653
:102C400000F03CFE154B1C2422461846002106F0DD
:102C5000A5FA162103F068FF114B22461846002101
:102C600006F09CFA002103F04CFF0E4B2246002197
:102C7000184606F093FA212102B0BDE8704003F037
:102C800040BF00BF741D0020C8010020156C000863
:102C9000C41D0020681E002011280008301E0020DE
:102CA0004C1E0020141E00200FB407B5064B04AACA
:102CB0001B6852F8041BD86801920AF0B7F803B0F9
:102CC0005DF804EB04B070477406002013B5084BA0
:102CD0000024CDE900340122082307212046FEF715
:102CE00051FDFEF74BFD034B1C7002B010BD00BF41
:102CF0002021F636451F002010B5044648B9FFF7DD
:102D0000E1F9FFF7E3FF084B1B682046BDE81040E0
:102D10001847012807D1FFF7D5F9FFF7D7FF024B76
:102D200002201B68F2E710BD881F00202DE9F0414A
:102D3000884615461F469DF9186000283BD1202A79
:102D400003D92648FFF7B0FF2025254C2A464146E7
:102D5000204606F00DF9234B1F80234B1E7026786A
:102D60002746FEB9214BA4781B78A34201D0FF2C43
:102D70001BD1A4F1FF035C425C4101261C4B1B7874
:102D8000ABB9FFF79FF9FFF7A1FF012E24D1194B33
:102D9000787819492A1F1D68D2B22346AC46BDE88F
:102DA000F041604700242646E8E73446E6E713484A
:102DB000FFF77AFFE9E7013801280DD80C4B1B78A3
:102DC0002BB9FFF77FF9BDE8F041FFF77FBF0B4854
:102DD000BDE8F041FFF768BFBDE8F081ED8501086F
:102DE000461F0020921F0020901F0020941F0020EB
:102DF000451F00208C1F00204A1F0020328601083A
:102E00000A4B10B518700A4B19600A4B0A491A6030
:102E100004460A48FFF7D6F8094B00225C701A7086
:102E2000FFF750F9BDE81040FFF750BF941F002096
:102E3000881F00208C1F00202D2D0008F92C000871
:102E4000661F0020F7B5184F3C7834B1174821466B
:102E5000FFF72AFF012003B0F0BD1C2905D9144853
:102E60002022FFF721FF0320F5E7124D0E1DAA7067
:102E7000F6B20A460146281D2C70EE7006F078F86E
:102E8000FFF720F90C4A0823CDE90032214601233F
:102E900007220E20FEF75AFE31462846FEF73EFE78
:102EA00001233B702046D6E7451F0020028501081C
:102EB00043850108661F00202021F636014BB3F937
:102EC00000007047921F0020014B93F900007047EB
:102ED000901F002010B5074B1C78012C05D1064827
:102EE0002146FFF7E1FE204610BD044B187000207C
:102EF000FAE700BF451F00208D850108941F0020C0
:102F00000FB407B5064B07491B6805AAD86801929C
:102F100009F08CFF03B05DF804EB04B0704700BF0C
:102F200074060020A786010837B501460D480E4AF1
:102F3000037803EB83052A44545C012C06D00B4B29
:102F40002B445B5C0370204603B030BD084864220C
:102F500002FB03000090074802FB01020648FFF74E
:102F6000CFFFF0E7951F0020938601087F860108B8
:102F7000C8030020D4010020A7860108014B18785F
:102F8000704700BF951F0020014B00221A70704748
:102F9000951F002043692DE9F0410D46D9070446ED
:102FA00028D58168334F8268334E8368334839406F
:102FB000B94202EA060204BF0127A760B24203EA4F
:102FC000000304BF4FF48076A660834204BF4FF431
:102FD0008030A0602748814205D027498A4202D02C
:102FE000264A934206D1264B264A1B6852F82500F2
:102FF00001219847E2686369920708D09F0706D5C8
:103000001F4B204A1B6852F8250000219847A169F0
:10301000626963698E070AD5900508D5190406D53B
:10302000174B184A1B6852F8250005219847A769D5
:103030006669626917F0040706F4806609D046B134
:10304000120406D50E4B0F4A1B6852F825000721C3
:10305000984763695FB156B11B0408D5084B094A0C
:103060001B6852F825000221BDE8F0411847BDE871
:10307000F08100BF030000040003000800000310FB
:10308000A01F0020981F002000210148FFF782BFE9
:1030900000640040FFF7F8BFFFF7F6BF01210148C9
:1030A000FFF778BF00680040FFF7F8BFFFF7F6BFF3
:1030B00030B5036891FAA1F4B4FA84F491FAA1F15D
:1030C0000325B1FA81F1640005FA04F4490023EA0A
:1030D000040302FA01F11943016030BD00B5002379
:1030E00089B007286FD8DFE800F00413202D3A4795
:1030F00054610093364B37481A6B42F001021A6351
:103100001B6B03F001030093009B09B05DF804FB07
:1031100001932F4B30481A6B42F002021A631B6B6B
:1031200003F002030193019BEFE70293284B2B4826
:103130001A6B42F004021A631B6B03F00403029340
:10314000029BE2E70393224B25481A6B42F00802E8
:103150001A631B6B03F008030393039BD5E70493E7
:103160001B4B20481A6B42F010021A631B6B03F0D2
:1031700010030493049BC8E70593154B1A481A6B78
:1031800042F020021A631B6B03F020030593059B9A
:10319000BBE706930E4B15481A6B42F040021A63C8
:1031A0001B6B03F040030693069BAEE70793084BA7
:1031B0000F481A6B42F080021A631B6B03F0800306
:1031C0000793079BA1E70B4804F01CFD00209CE738
:1031D00000380240000002400004024000080240A3
:1031E000000C02400010024000140240001802408F
:1031F000001C02407C890108431C10B5044604D120
:1032000076220649064803F059FF2046002100F0C7
:103210000DFE04F00F040120A04010BD9D8901089F
:10322000F789010870B504464B1C0E46218216D062
:10323000C1F30310FFF752FF05463046FFF7DCFFEE
:10324000238A074A656103F00F03206052F8233098
:10325000A36105F1100318356360A560E56070BDDA
:10326000B48C0108B0F9100000F078BE0A4619B914
:1032700081694069FFF71CBF0122F9E74C23F0B5D3
:103280004343224E224F1A1D324400244FF0010EB8
:103290001E448C4205D10146BDE8F0401D4804F0B3
:1032A000B1BC33680EFA04F51D422BD0136B7D6957
:1032B0000EFA03F32B4225D0D2F818C07B611568B3
:1032C00005B3FA6833EA020203D1BA6833EA0202AC
:1032D00014D10F4A916833EA010103D1D26833EA6D
:1032E00002020DD1DCF81020134214BF012102218B
:1032F000094B28461B68BDE8F04018470221F7E754
:103300000121F5E701340432C3E700BFA41F002008
:10331000003C0140318A0108B821002006210846FE
:10332000FFF7ACBF05210846FFF7A8BF0121042025
:10333000FFF7A4BF01210320FFF7A0BF0121022056
:10334000FFF79CBF01210846FFF798BF012100202D
:10335000FFF794BF012910B518D11B4C838952B1D6
:10336000A26803F00F0399401143A160836843F002
:103370000103836010BDA26803F00F03994022EAA5
:103380000101A160836823F00103F2E70229F1D172
:103390000D4983895AB1CC6803F00F03012202FA68
:1033A00003F32343CB60836843F00203E1E7CA6879
:1033B00003F00F03012404FA03F322EA0303CB60B2
:1033C000836823F00203D4E7003C0140B0F90C30DD
:1033D00099B270B501F00F0606F00C0404F18044B8
:1033E00004F59C3401F00301A56889000F228A408E
:1033F000C3F3031325EA02058B402B43A3600F4B55
:1034000001221968B240114319608468E50742BF80
:10341000996811439960A10742BFD9680A43DA60ED
:1034200090F90030002B08DB5909012203F01F033B
:1034300002FA03F3024A42F8213070BD003C014019
:1034400000E100E02DE9F04F92464A1C85B080462D
:103450000C4666D000220392334A344F516C41F43B
:1034600080415164526C02F480420392039A04F04A
:103470000F090C2202FB0972C4F303105568062DD4
:1034800047D8DFE805F0043A3C3E40424400284E6D
:103490000193FFF723FE0C2101FB09F17A1857F87D
:1034A00001E0244FA8F80C404C21694301247B58CB
:1034B00092F90820C8F8045004FA0EF44FF0000BFB
:1034C0001C4388F80020C8F808B07C50132101FB89
:1034D00005E507EB8501019B4B60174BC861C3F8FD
:1034E00000A0164BC1F834909B681032404643F858
:1034F0002260FFF76BFF584610E0114EC8E7114EEF
:10350000C6E7114EC4E7114EC2E7114EC0E7114E97
:10351000BEE7114804F076FB4FF0FF3005B0BDE880
:10352000F08F0846FAE700BF003802405C8A0108C5
:103530004D330008A41F0020B821002000ED00E05A
:10354000453300083D330008353300082D330008AB
:10355000253300081D3300080A8A01088389184AA8
:1035600003F00F03012110B501FA03F39468DB4364
:103570001C409460D4681C40D460146823401360DD
:1035800090F90030002B0CDB5A0903F01F0301FAFD
:1035900003F320320B4941F82230BFF34F8FBFF3C2
:1035A0006F8F90F90030002B09DB5A09012103F0DD
:1035B0001F0301FA03F36032024941F8223010BDC3
:1035C000003C014000E100E0838903F00F020C237E
:1035D0005343104A70B54468D658FFF7BFFF4C21DB
:1035E0000D4A6143012000FA06F55058132303FBEE
:1035F000046320EA0500505002EB83000021416083
:10360000981D0C3302EB800002EB8303416059608C
:1036100070BD00BF5C8A0108A41F002008B503F03C
:103620007DF8002008BD000008B50A4B1B684BB1AF
:1036300003F07EFA04F0A3F94FF47A72002312F03B
:1036400039FD08BD03F0BEF84FF47A73B0FBF3F018
:1036500008BD00BFBC21002010B588B003F06AFF90
:10366000052101A803F060FA0424039B019A1A6063
:10367000962004F00FFA019B049A1B041360962015
:1036800004F008FA013CF0D10424039B019A1A606B
:103690004FF4C87004F0FEF9019B049A1B041360F8
:1036A0004FF4C87004F0F6F9013CEED1DCE70000FD
:1036B00070B50D46A0B0044603F03CFF2B462246F1
:1036C000802168460BF000F8051E03DC03F048FF7C
:1036D00020B070BD094B1B6823B9032202210848A2
:1036E00000F090FE064E00241DF804103046013410
:1036F00001F06AF8A542F7D1E8E700BF04220020F4
:10370000AC2300200FB407B504A951F8040B0191B4
:10371000FFF7CEFF03B05DF804EB04B07047000084
:1037200008B502F0A9FF01F0ADF802F095FF02F034
:10373000A3FF024B01221A6008BD00BFBC2100207C
:1037400000207047036801221B69002118470368A5
:1037500000221B691146184703681B691847036854
:103760009B69184703689B6A184700290CBF6FF0D4
:1037700018000020704701207047112070477047E3
:103780006FF01C0070476FF0150070470120704704
:103790000020704770470000F8B5074E15460C46EC
:1037A0008F18BC4205D014F8011B304601F00CF80C
:1037B000F7E72846F8BD00BFAC23002038B58DB22E
:1037C00015F0010405D0084800F098FD041C18BF4E
:1037D0000124EB0605D5044800F0A6FD08B144F02D
:1037E0001004204638BD00BFAC23002010B50446AD
:1037F00005F060FB204610BD10B50C462AB1044808
:1038000000F0D0FF2070012010BD104610BD00BF99
:10381000AC23002038B51D46074B0360074B1B68DF
:10382000044633B9064800F0EDFD2946044800F08F
:10383000B1FD204638BD00BF988B0108042200204E
:10384000AC230020002070470020704708B50120FD
:1038500000F036F80C4A136810B51844EFF30881ED
:10386000884205D3094B0C221A604FF0FF3010BD7F
:1038700007490C6824B10749096821448842F1D2FC
:103880001060184610BD00BF5806002074230020A9
:10389000D0210020D4210020074C08B5236805461C
:1038A000986804F0F9FC2368D86804F0F5FC0DB1C1
:1038B000FFF7D2FEFEE700BF74060020012070472C
:1038C00008B5FFF7E9FF01207047002105F0A2BD10
:1038D00004F01CBD7047704708B5FFF7FBFF08BD3B
:1038E00008B5FFF7F8FF08BD10B5037803F0030330
:1038F000012B04460CD02BB140F2A95205490648D1
:1039000003F0DCFB237843F002032370012010BD99
:10391000002010BDE08B0108378C010810B503783A
:1039200003F00303022B044605D040F2B1520549CF
:10393000054803F0C3FB237823F0030343F001039E
:10394000237010BDE08B01085D8C01083F2870B525
:1039500004462FDC184D55F820305A1C13D102288C
:1039600011DCFFF771FF034658B92046FFF76AFFE5
:10397000034630B9114E3378BFF35B8FDB0704D5B4
:103980000F4B45F82430184670BD3046FFF7ACFFAA
:103990000028F5D04FF41653032202210848FFF700
:1039A00039FF3046FFF7BAFF064A07490448FFF7D8
:1039B00085FFE5E70023E6E758050020C021002049
:1039C000CC210020C80100209537000838B50546F5
:1039D000FFF7BCFF0B4B002443F8254030B904F03F
:1039E00021FB092303604FF0FF3038BD03685B699A
:1039F0009847051E04DA04F015FB6D420560F2E7F6
:103A0000204638BD58050020FFF7E0BF38B50C460A
:103A10001546FFF79BFF38B904F004FB0923036048
:103A20004FF0FF34204638BD03682146DB682A4644
:103A30009847041EF6DA04F0F5FA64420460EFE7F2
:103A400008B5131E06DA04F0EDFA162303604FF0F2
:103A5000FF3008BD04D0FFF7D9FF40EAE07008BD91
:103A6000184608BD38B50C461546FFF76FFF38B944
:103A700004F0D8FA092303604FF0FF34204638BD24
:103A8000036821469B682A469847041EF6DA04F02C
:103A9000C9FA64420460EFE7002A08B503DBBDE819
:103AA0000840FFF7DFBF04F0BDFA162303604FF0B4
:103AB000FF3008BD10B5FFF749FF044628B904F0F0
:103AC000B1FA09230360204610BD0368DB699847FB
:103AD000041EF8DA04F0A6FA644204600024F2E757
:103AE0001FB504220C4640230DEB020101900DF19D
:103AF00009008DF8083005F03BFA214602A804F0D1
:103B000093FD044630B10198FFF7D4FF10B1204671
:103B1000FFF7DBFE204604B010BDFFF7CBBF38B582
:103B20000C461546FFF712FF38B904F07BFA09235B
:103B300003604FF0FF34204638BD036821461B69FF
:103B40002A469847041EF6DA04F06CFA64420460D0
:103B5000EFE7FFF7E4BF38B50D46FFF7F7FE044681
:103B600030B904F05FFA092303604FF0FF3038BD2D
:103B70000368DB699847002814BF4FF400534FF4E3
:103B800000436B60236820469B6A984728610020A9
:103B900038BDFFF7E0BF05F08DB90000034610B552
:103BA00053F8042B044602B9036022689A4204D0F9
:103BB0005E220349034803F081FA206810BD00BF6C
:103BC0001C8B01087B8B010810B504460948FFF7E0
:103BD000E5FF0023084A194652F82300A04208BF17
:103BE00042F823100133402BF6D10248FFF7D6FFED
:103BF00010BD00BFC42100205805002010B50F489B
:103C0000FFF7CCFF0E4B032453F824206AB1013494
:103C1000402CF9D104F006FA182303600748FFF797
:103C2000BDFF4FF0FF34204610BD4FF0FF32034878
:103C300043F82420FFF7B2FFF5E700BFC4210020BE
:103C40005805002010B50446FFF7D8FF0028A4BF90
:103C5000014B43F8204010BD5805002070B50646C2
:103C60000C46FFF7EFFF054690B12146FFF738FFFE
:103C7000044630B9074B53F82520964203D143F848
:103C80002500204670BD04F0CDF909230360F8E754
:103C90000446F6E7580500200EB42DE9F04185B042
:103CA0000546FFF7ABFF041E13DB0023294602A8DD
:103CB000019303F07BFE02A803F0CAFE1B4D0646EB
:103CC00068B904F0AFF91323036045F824604FF09E
:103CD000FF34204605B0BDE8F04103B0704702A8AC
:103CE00003F0A4FE074602A837B103F0A8FE019036
:103CF000019B45F82430ECE703F08FFE06460028D0
:103D0000DFD0036802A8D3F8088003F07BFE0B9B8A
:103D1000024601A93046C04706460028E8D004F014
:103D200081F97642066045F82470D0E758050020F6
:103D300073B50E461849054605F0C6FC044620B981
:103D4000FFF704FE204602B070BD1449284605F076
:103D5000BBFC20B90120FFF7F9FD0124F2E710496F
:103D6000284605F0B1FC20B90220FFF7EFFD022440
:103D7000E8E72B78402B07D10422691C0DEB0200E9
:103D800005F0F6F8019CDDE726F400412846FFF730
:103D900083FF0446D6E700BFA48C0108AB8C010862
:103DA0009C8C010870477047074B08499A6808487F
:103DB00010B5043A52F8044F41F8044F8142F9D14A
:103DC0004FF000529A6010BD00ED00E0FCFFFF1FB5
:103DD000C001002008B5FFF7E7FFFFF7A1FCFFF7E0
:103DE000E2FF08BD08B5FFF7DDFFBDE80840FCF7BE
:103DF00065BB30B5C36891FAA1F4B4FA84F491FAC2
:103E0000A1F10325B1FA81F1640005FA04F4490037
:103E100023EA040302FA01F11943C16030BD012A0B
:103E200002D0022A18BF0022FFF7E3BF2DE9F041BC
:103E30000E46411C044604D13E224449444803F046
:103E40003DF904F00F08434BC4F3031053F8285016
:103E5000FFF744F906F007070446836895FAA5F1D1
:103E6000B1FA81F195FAA5F20320490000FA01F1B7
:103E7000B2FA82F223EA01035200022101FA02F2AD
:103E80001343A36087425AD8DFE807F05E1D021D86
:103E9000B8F1070FC6F303203BD9626A2B0A93FAE5
:103EA000A3F1B1FA81F193FAA3F34FF00F0EB3FA35
:103EB00083F389000EFA01F19B0022EA010200FA65
:103EC00003F3134363623B46226895FAA5F0B0FA08
:103ED00080F095FAA5F14FF0030EB1FA81F14000A0
:103EE0000EFA00F0490022EA00028B40013F134322
:103EF000012F236005D8636832074CBF2B43AB43C7
:103F00006360C6F3011229462046BDE8F041FFF781
:103F100086BF226A95FAA5F3B3FA83F395FAA5F161
:103F20004FF00F0EB1FA81F19B000EFA03F38900F6
:103F300022EA030200FA01F313432362C3E7672274
:103F40000249054803F0BAF80023BDE7F48C0108E4
:103F5000F7890108B48C0108EB930108431C70B584
:103F600006460D4604D188221B491C4803F0A6F8DA
:103F700006F00F021A4BC6F3031053F82240FFF766
:103F8000ADF804FB04F2016802EB42030B40B3FB03
:103F9000F2F3013B012B05D8EB1E022B436809D835
:103FA00023434360032D08D101222146BDE8704020
:103FB000FFF735BF23EA04034360012DF4D0052D3C
:103FC00001D0022D01D10222EFE721460022BDE8F7
:103FD0007040FFF70EBF00BFF48C0108F78901089D
:103FE000B48C010870B5A6B03422002102A805F0F7
:103FF000D5F85C2200210FA805F0D0F82A4B1D68E7
:10400000002D4FD1294C019501261E60236C43F0F1
:1040100080532364236C03F080530193019B00F0D1
:104020005DFC042302A802930895049600F0C0FFEB
:1040300010B11F4803F0E6FDA36823F4F813A36052
:10404000A36823F4F813A360236F43F480732367FA
:1040500020230F930FA84FF480731F9300F058FD97
:1040600010B1144803F0CEFD134B144801221A601E
:10407000134B036003220023826041F6FF724377F3
:104080004360C26003614361836101F05EF910B176
:104090000C4803F0B7FD094801F089FA10B10A484D
:1040A00003F0B0FD26B070BDE021002000380240D2
:1040B0004C8D01086C8D01083C0E4742E421002024
:1040C00000280040958D0108AF8D0108F0B51F4B09
:1040D0001F491C681F4A5D688BB00C4015401E4686
:1040E0000F461868084084422BD15868104085421A
:1040F00027D105F03F0001F051FA0490C5F30420E8
:1041000001F04CFA01380590280C01F047FA4430D0
:104110000690C4F3054001F041FA0390C4F3062071
:1041200001F03CFA029004F07F0001F037FA01221E
:104130000190694601A802F0DFFF00B100980BB0C2
:10414000F0BD346875683C401540CAE7002800405F
:104150007F7F7F003FFFFF00024BD868C0F3001055
:10416000704700BF00280040214B224A2DE9F04152
:104170001D691C689E6AC5F30E0514401846174653
:10418000196811408C422ED1996A8E422BD1C4F30A
:10419000054001F003FA0746C4F3062001F0FEF9DA
:1041A000804604F07F0001F0F9F9134A13493C23DB
:1041B00013FB08004FF4616303FB070013681468E6
:1041C00098420B683CBF03F5A83303F5C0731B1B73
:1041D00003440B6010600868013DC00305EB9000CC
:1041E000801BBDE8F0810468866A3C40C8E700BFD8
:1041F000002800407F7F7F00DC210020D8210020A4
:1042000030B591B000211422044602A8019104F0B7
:10421000C5FF03F08FF92A4B2A4A1A6007A9012229
:10422000204602F0B9FF002848D00D9B03B90723B0
:104230008DF804300B9B01338DF805300A9B8DF807
:1042400006300C9B443B8DF80730099B8DF80830F5
:10425000089B8DF809300024079B8DF80A308DF8F3
:104260000B4005940694FFF77FFF9DF809109DF819
:104270000A2013483C2313FB01229DF808304FF419
:10428000616101FB0323104A13600E4B224601A912
:104290009D6A01F0B3F810B10C4803F0B3FC0022A2
:1042A00002A9074801F00AF910B1094803F0AAFC75
:1042B000044A936A9D42FCD103F052F911B030BD1B
:1042C000E421002000280040DC210020C88D0108E6
:1042D000DF8D01080FB407B5064B07491B6805AA17
:1042E000D868019208F0A2FD03B05DF804EB04B0B9
:1042F000704700BF74060020F68D01084368094A24
:104300009B0182B0D3581A68120706D50022019289
:104310001A6801925A680192019A1868C0F3401015
:1043200002B07047F82300204368034A9B01D3582A
:104330001868C0F3C0107047F82300204268144981
:10434000920110B404685450531882685A60C268CD
:104350009A600269DA6042691A61026A9A6100220F
:10436000DA84DA619A84DA859A85B0F91A20013202
:1043700006D108225A6118465DF8044B01F0B1BE1F
:10438000B0F9182001320CBF04220C22F2E700BF62
:10439000F823002010B581600C46FFF7CFFF28B14D
:1043A00021460348BDE81040FFF794BF10BD00BF91
:1043B000F68D0108124B984217D0A3F54C43984252
:1043C00015D003F58063984213D003F580639842BB
:1043D00011D003F5806398420FD003F5444398420F
:1043E0000CBF05204FF0FF307047002070470120C0
:1043F000704702207047032070470420704700BFB9
:1044000000100140F0B50E4687B004465B493046C7
:10441000154602F0C5FC5A490746284602F0C0FC82
:104420000146384602F096FC2060013004D13D225E
:104430005449554802F042FE022E0CD0032D0AD0FA
:104440004E49022002F0ACFC874202D14F4803F0F3
:10445000D9FB002700E001274D4B206898424FF020
:1044600000031AD100934B4B5A6C42F010025A646D
:104470005B6C03F010030093009B474B984229D1DB
:1044800000230593434B5A6C42F020025A645B6C44
:1044900003F020030593059B1CE0404A90420BD19A
:1044A00001933C4B1A6C42F400321A641B6C03F407
:1044B00000330193019BE0E7394A904240D10293D7
:1044C000344B1A6C42F480221A641B6C03F4802370
:1044D0000293029BFFF76EFF0028606004DAA422BB
:1044E0002849304802F0EAFD2449304602F00EFC2B
:1044F0002349284602F00AFC721C03D001213046F1
:10450000FFF72CFD6B1C03D001212846FFF726FD89
:104510004FF41653A3600023E360236163612362B9
:10452000268365832046FFF709FF3FB11E4B1F48D6
:1045300001221A6021464C2204F01AFD07B0F0BD9A
:104540001B4A90420BD10393124B1A6C42F4002287
:104550001A641B6C03F400230393039BBAE7154A08
:1045600090428AD104930B4B1A6C42F480121A6465
:104570001B6C03F480130493049BABE704890108CC
:104580008C880108208E01087C8E0108988E010815
:104590000010014000380240001401400044004077
:1045A00000480040CD8E010804220020AC230020EA
:1045B000004C004000500040002808DB4209012365
:1045C00000F01F0003FA00F0014B43F8220070478F
:1045D00000E100E000280DDB4309012200F01F008C
:1045E00002FA00F02033044A42F82300BFF34F8F51
:1045F000BFF36F8F704700BF00E100E0F7B5FFF732
:10460000D9FE071E26DB144E56F8270010B3134CB4
:10461000BD0163591A68120606D5DB68190603D571
:104620000F4B01211B68984763591A68920608D5F9
:10463000DB68980605D50A4B56F827001B68002151
:10464000984763591A68110704D55A69D20744BFBD
:104650005B68019303B0F0BD0C220020F82300201A
:10466000082200200148FFF7C9BF00BF0014014025
:104670000148FFF7C3BF00BF005000400148FFF7EB
:10468000BDBF00BF004C00400148FFF7B7BF00BFEF
:10469000004800400148FFF7B1BF00BF00440040A0
:1046A0000148FFF7ABBF00BF00100140034B19608A
:1046B0004168034B43F82120704700BF08220020C7
:1046C0000C22002030B490E818002C48834233D0EC
:1046D0000AD8A0F50060834228D000F580608342AC
:1046E00027D0002318460FE0254883420AD000F562
:1046F0008060834223D0A0F544408342F1D1214B16
:10470000352001E0204B2520204DA401FAB1C9B984
:104710002959CA6842F02002CA601D4A00F11001FE
:10472000926830BC42F82130FFF746BF194B262073
:10473000EAE7194B2720E7E7184B3420E4E7184B4A
:104740004720E1E72959CA6842F08002E4E72B5983
:10475000DA6849B922F02002DA60DB6813F0800FD2
:1047600009D130BCFFF736BF22F08002DA60DB6887
:1047700013F0200FF4E730BC704700BF004C00403E
:104780000010014071460008A1460008F8230020EF
:1047900000ED00E095460008894600087D460008C7
:1047A0006546000838B5446805462846FFF7A6FD6B
:1047B0000028FAD0A401034B1B595868C0F3080025
:1047C00038BD00BFF823002070B5456806460C468A
:1047D0003046FFF7A9FD0028FAD0AD01024B5B5926
:1047E000C4F308045C6070BDF823002008B50E4ACD
:1047F000C36D934214D008D8A2F5806293420FD0C3
:104800000A4803F0FFF9002008BD094A934203D08B
:1048100002F580629342F3D1BDE8084000F04AB946
:10482000BDE8084000F036B9003C0040DF8E0108CA
:1048300000300140DFF830D0002103E00B4B5B5823
:10484000435004310A480B4B42189A42F6D30A4AA5
:1048500002E0002342F8043B084B9A42F9D301F0EE
:104860001FFEFBF7D3FC704700000220A09D01084B
:10487000C80100204410002048100020C02500205E
:10488000FEE7704708B50B4B1A6842F400721A60D5
:104890001A6842F480621A601A6842F480721A60E0
:1048A000032000F009F80F20FEF7B8FEFFF7E9FF3C
:1048B000002008BD003C0240074AD36823F4E063AF
:1048C0001B041B0C43F0BF63000243F4003300F4ED
:1048D000E0600343D360704700ED00E0014B01222C
:1048E0001A60704720000E4237B500230193184B21
:1048F000184C1A6C42F080521A641B6C03F08053FF
:104900000193019B144B01221A60FEF78DFE0546B0
:104910006368DA030BD5114B0E4C01221A60FEF7C7
:1049200083FE054663689B030AD5002006E0FEF778
:104930007BFE401BB0F57A7FEAD9032003B030BD7F
:10494000FEF772FE401BB0F57A7FEBD9F5E700BFAA
:10495000003802400070004040000E4244000E4209
:104960002DE9F0410D46044610B90120BDE8F08163
:10497000444B1A6802F00F028A4228D321688F073D
:104980002DD4C80740D43F4B1A6802F00F0295425D
:1049900066D3226851076CD4130707D53A4A2169B8
:1049A000936823F4604343EAC103936000F0B8FACC
:1049B000354B364A9B68C3F30313D35CD840344B62
:1049C00018600F20FEF72AFE0020BDE8F081CAB271
:1049D0001A701B6803F00F039942C6D1CEE72A4B29
:1049E00011F0040F1EBF9A6842F4E0529A600E075D
:1049F00042BF9A6842F460429A609A68A06822F0C6
:104A0000F00202439A60BCE762681F4B012A1DD185
:104A10001B6813F4003FA8D01B4EB36823F00303B8
:104A20001343B360FEF700FE41F288380746B368CF
:104A3000626803F00C03B3EB820FA4D0FEF7F4FD21
:104A4000C01B4045F3D90320BDE8F081911E012928
:104A50001B6802D813F0007FDDE713F0020FDAE7DE
:104A6000EAB21A701B6803F00F039D427FF47DAF1A
:104A70008FE70549E0688B6823F4E05303438B60BC
:104A80008AE700BF003C024000380240E58F010881
:104A90005C060020044B054A9B68C3F38223D35C69
:104AA000034A1068D840704700380240F58F01086B
:104AB0005C060020044B054A9B68C3F34233D35C79
:104AC000034A1068D840704700380240F58F01084B
:104AD0005C0600200F2303600B4B9A6802F0030270
:104AE00042609A6802F0F00282609A6802F4E05232
:104AF000C2609B68DB0803F4E0530361034B1B684F
:104B000003F00F030B60704700380240003C024086
:104B100003682DE9F74313F0010604460BD0AA49B8
:104B2000866BD1F88C2022F0C0623243B6FA86F64A
:104B3000C1F88C2076099D070BD5A348E16BD0F80E
:104B40008C2022F0C0520A430029C0F88C2008BFF4
:104B5000012613F0040512D09B49256BD1F88C2057
:104B6000B5F5801F22F4401242EA050218BFB5FADB
:104B700085F5C1F88C2012BF6D09002501261807A4
:104B80000FD59148616BD0F88C2022F440020A4383
:104B9000B1F5800FC0F88C2000F00981002908BF12
:104BA0000125990633D500230193874B874F1A6C53
:104BB00042F080521A641B6C03F080530193019BF6
:104BC0003B6843F480733B60FEF72EFD80463B68F4
:104BD000DA0540F1EE807C4F3B6F13F4407340F0F8
:104BE000FB80236C03F44072B2F5407F764A40F0BC
:104BF0001681916823F0704021F4F81120F4407080
:104C000001439160116FC3F30B030B4313672368D8
:104C1000D90642BF6E4B94F858201A6023681A06D2
:104C200008D56949E06CD1F8942022F4400202438F
:104C3000C1F894205F0608D56349A06CD1F8942090
:104C400022F080620243C1F89420D8050CD55E485A
:104C5000616DD0F8942022F000620A43B1F1006F38
:104C6000C0F8942008BF0125990508D55649606C05
:104C7000D1F8942022F080520243C1F894205A05C2
:104C800000F1D180012E40F0DC80524E4E4F0023C7
:104C90003360FEF7C9FC80463B681B0100F12581AB
:104CA0002268D00701D5A36B1BB1910715D5E36B23
:104CB0009BB94549D1F88430D1F8840003F44033DE
:104CC00000F07060034360680343A06843EA801308
:104CD000606943EA0073C1F88430530703D5236B3E
:104CE000B3F5801F05D0170720D5636BB3F5800F90
:104CF0001CD13549D1F88430D1F8840003F4403315
:104D000000F0E040034360680343A06843EA801377
:104D1000206943EA0063C1F88430D1F88C00A36AAB
:104D200020F01F00013B0343C1F88C3050051BD518
:104D3000236DB3F1005F17D123486768D0F8841062
:104D4000D0F8843003F0E0433B43A768C1F301414E
:104D5000013143EA871343EA4163E16849080139B5
:104D600043EA0143C0F88430110511D52369A268D4
:104D70001B0643EA821362681343626943EA0273C3
:104D8000E2685208013A43EA02430F4AC2F884300B
:104D900001233360FEF748FC0B4E074633681A01C7
:104DA00053D4FEF741FCC01B0228F7D908E00126C6
:104DB000F7E6FEF739FCA0EB080002287FF607AF04
:104DC000032003B0BDE8F0830038024000700040CB
:104DD000E011474268004742226C02F4407293425D
:104DE0003FF4FFAE3B6F4B4A0121116023F4407347
:104DF000002111603B673B6FDB077FF5F2AEFEF7EA
:104E000013FC41F2883980463B6F98073FF5E9AEC5
:104E1000FEF70AFCA0EB08004845F5D9D0E79168F9
:104E200021F4F811EDE63C48216DD0F8942022F0F1
:104E300000520A43B1F1005FC0F894207FF422AF22
:104E400023E7B3F5006F3FF420AF012D4BD1334D75
:104E5000314E00232B60FEF7E7FB074633689B00CB
:104E60004BD421684E0701D5236B1BB108071AD517
:104E7000636BC3B9284AA069D2F8883003F4403381
:104E80000343E06943EA8013606A43EA0063C2F8BF
:104E90008830D2F88C30E06A23F4F853013843EAC2
:104EA0000023C2F88C30CA0514D5636DB3F1006FCE
:104EB00010D11949A269D1F8883003F07063134307
:104EC000E26943EA8213226A5208013A43EA024342
:104ED000C1F8883001232B60FEF7A6FB0E4C054677
:104EE00023689B000FD500206BE7FEF79DFBA0EB2E
:104EF000080002287FF6D0AE62E7FEF795FBC01BE4
:104F00000228ABD95CE7FEF78FFB401B0228E7D9EC
:104F100056E700BF400E474200380240700047424B
:104F2000204908B58B6803F00C03082B07D00C2B25
:104F300020D01D4A1D48042B18BF104608BD4A68E2
:104F40004B68496813F4800314BF18481648C1F32E
:104F5000881118BF002302F03F02A1FB000111F0ED
:104F6000A9F8104B5B68C3F3014301335B00B0FB4E
:104F7000F3F008BD4A684B68496813F4800314BF16
:104F80000A480948C1F3881118BF002302F03F0204
:104F9000A1FB000111F08EF8024B5B68C3F30273B2
:104FA000E5E700BF003802400024F40000127A0058
:104FB00003682DE9F341DF07044610D423689E07F8
:104FC00067D423681A0700F1B28023685B0700F1F9
:104FD000D080A269002A40F0398100201EE0974B62
:104FE0009A6802F00C02042A10D09A6802F00C02AF
:104FF000082A02D15B685D0208D4904B9A6802F0DF
:105000000C020C2A0DD15A6850020AD58B4B1B6832
:105010009903D3D56368002BD0D1012002B0BDE83D
:10502000F0816268B2F5803F11D11A6842F4803293
:105030001A60FEF7F9FA814D06462B689A03BDD433
:10504000FEF7F2FA801B6428F7D90320E6E77B4DD0
:10505000B2F5A02F2B6807D143F480232B602B6877
:1050600043F480332B60E4E723F480332B602B6818
:1050700023F480232B60002ADBD1FEF7D5FA064605
:105080002B689B039AD5FEF7CFFA801B6428F7D9CB
:10509000DBE76A4B9A6812F00C0F10D09A6802F0A6
:1050A0000C02082A02D15B685F0208D5634A936844
:1050B00003F00C030C2B11D153685E020ED45F4B2E
:1050C0001A68950702D5E268012AA6D11A682169F3
:1050D00022F0F80242EAC1021A6072E7E268584B15
:1050E000B2B101221A60FEF79FFA544D06462B68B2
:1050F000980707D52B68226923F0F80343EAC20317
:105100002B605EE7FEF790FA801B0228EFD99CE740
:105110001A60FEF789FA494D06462B6899077FF514
:1051200050AFFEF781FA801B0228F6D98DE762693D
:10513000444B7AB101221A60FEF776FA3F4D0646DB
:105140006B6F9F073FF541AFFEF76EFA801B022899
:10515000F6D97AE71A60FEF767FA384D06466B6FA4
:1051600098077FF532AFFEF75FFA801B0228F6D969
:105170006BE7324B1A6C12F0805228D101921A6CF4
:1051800042F080521A641B6C03F080530193019B20
:1051900001262D4D2B68D9051BD5A368274D012B62
:1051A00027D12B6F43F001032B67FEF73DFA234D08
:1051B000074641F288382B6F9B0739D5002E3FF404
:1051C00008AF1E4A136C23F08053136401E70026D6
:1051D000DFE72B6843F480732B60FEF725FA074660
:1051E0002B68DA05D9D4FEF71FFAC01B0228F7D9BD
:1051F0002BE7052B04D12B6F43F004032B67D0E77B
:105200002A6F22F001022A672A6F22F004022A671D
:10521000002BCAD1FEF708FA41F2883807462B6FF7
:105220009807CBD5FEF700FAC01B4045F7D90CE72D
:10523000FEF7FAF9C01B4045BDD906E70038024029
:1052400000004742800E474200700040234DAB688B
:1052500003F00C03082B3FF4E0AE214E0023022A9A
:1052600033602DD1FEF7E0F907462B68990121D470
:10527000226AE3691343626A43EA8213E26A43EAF9
:105280000263226B43EA0273A26A144C5208013A89
:1052900043EA02436B6001233360FEF7C5F905461C
:1052A00023689A013FF599AEFEF7BEF9401B02282C
:1052B000F6D9CAE6FEF7B8F9C01B0228D5D9C4E66C
:1052C000FEF7B2F904462B689B017FF586AEFEF728
:1052D000ABF9001B0228F6D9B7E600BF0038024040
:1052E000600047427047026838B5D36823F0A003D6
:1052F000D3600446FEF798F905462368DB689B06F1
:1053000001D5002038BDFEF78FF9401BB0F57A7F3C
:10531000F3D9032038BD38B50368DA68520604466D
:1053200001D5002038BD4FF0FF32DA60FEF77CF97E
:1053300005462368DB685B06F3D4FEF775F9401B6E
:10534000B0F57A7FF5D9032038BD38B50446B8B139
:10535000437F03F0FF0213B90277FFF7C3FF022375
:1053600063772368CA225A6253225A622046FFF7A3
:10537000D2FF2368054628B1FF225A6204236377CF
:1053800001252EE09A68206922F4E00222F0400212
:105390009A60626899680243606902430A439A60AE
:1053A000E2681A611A69A16842EA01421A61DA6880
:1053B00022F08002DA609B689B0605D42046FFF746
:1053C00092FF08B12368D7E72368A1691A6C22F419
:1053D00080221A641A6C0A431A64FF225A6201235B
:1053E0006377284638BD0023092803D840EA031014
:1053F000C0B270470A380133C0B2F5E7F8B5037F91
:10540000012B05464FF0020630D001230377467783
:105410004B78C8788E780C78002A48D1DA0603D504
:1054200023F010030A334B70FFF7DDFF074648787F
:10543000FFF7D9FF02463046FFF7D5FF40EA443078
:1054400040EA074040EA02242B68CA225A625322EB
:105450005A622846FFF75FFF2B68064640B1FF22DD
:105460005A6204236B7700232B7701263046F8BD60
:1054700024F07F4424F0C0045C60DA6822F08002EB
:10548000DA609B689B060AD42846FFF72CFF30B1F0
:105490002B68FF225A6204236B772E77E5E72B688F
:1054A000FF225A6201236B7700232B77DEE71B0272
:1054B00043EA0040304340EA4434C5E7F8B5037F8F
:1054C000012B06460F464FF002052FD0012303772C
:1054D0000368457708784D788C789B6842BB13F059
:1054E000400308BFCB70FFF77EFF01462846FFF759
:1054F0007AFF02462046FFF776FFFB7840EA03403A
:1055000040EA014040EA02243368CA225A62532228
:105510005A623046FFF7FFFE33680546A8B1FF2206
:105520005A62042373770023337701252846F8BD98
:1055300013F040034FEA052508BFCB7045EA004051
:105540002043CC7840EA0444DEE704F07F3424F0C2
:10555000FE441C609A68386922F480229A60FA68D6
:10556000996802430A439A60DA6822F08002DA609E
:105570009B689B060AD43046FFF7B5FE30B133680E
:10558000FF225A62042373773577CEE73368FF2210
:105590005A620123737700233377C7E7030903EBCC
:1055A000830300F00F0000EB4300C0B27047037F9D
:1055B000012B4FF002030FD043770368CA225A62CF
:1055C00053225A629A6842F020029A60FF225A627D
:1055D00001234377002303771846704703685A680E
:1055E00022F0E0025A604268B2F5827F0AD18268F6
:1055F000B2F5004F02D0B2F5806F03D11A6822F0E5
:1056000040021A60826AB2F5005F09D11A6822F47A
:1056100000521204120C1A601A6842F400521A6006
:10562000012380F85130002380F850300320704768
:1056300070B505460C46164629688B689B0701D550
:10564000002070BD621CF8D024B92846BDE8704027
:10565000FFF7C4BFFDF7E8FF801B8442ECD8F4E7F6
:105660002DE9F041DDF8188005460F4616461C4628
:105670002B6898683840B04202D10020BDE8F08124
:10568000621CF6D024B92846BDE8F041FFF7A6BF5A
:10569000FDF7CAFFA0EB08008442E9D8F3E713B591
:1056A0000B460092802100220446FFF7D9FF20B16B
:1056B000636D43F020036365032002B010BD7047A3
:1056C00038B5044600283BD090F8513003F0FF0273
:1056D0001BB980F85020FFF7F2FF2168A568A06A87
:1056E000A269022384F851300B6823F040030B6059
:1056F00063682B43E5682B4325692B4365692B437E
:10570000E5692B43256A2B43034302F400752B43C1
:105710000B60120C636AB0F5005F02F0040242EA0B
:10572000030208BFE36A4A6008BF0B61CB6923F438
:105730000063CB6100200123606584F8513038BDDF
:10574000012038BD2DE9F3411E4690F85030012B61
:1057500004460D46904600F0BA80012380F8503090
:10576000FDF762FF074694F85100C0B2012840F0EF
:10577000AC80002D5FD0B8F1000F5CD0032384F81B
:10578000513000236365A363A4F83680A387E387C1
:1057900063642364A36822682563B3F5004F08BFE0
:1057A0001368A4F8348004BF43F480431360A36AF1
:1057B000B3F5005F09D1136823F400531B041B0CDD
:1057C0001360136843F40053136013685B065EBFF5
:1057D000136843F040031360E368B3F5006F636838
:1057E0003AD11BB1E38E9BB2012B06D135F8023BB7
:1057F000D360E38E013B9BB2E386E38E9BB283B919
:105800003A4631462046FFF713FF98B93A463146EB
:105810002046FFF744FF002840D020236365012085
:1058200009E023689A68900703D535F8022BDA60FF
:10583000DFE74EB90320012384F85130002384F8B8
:10584000503002B0BDE8F081711CD6D0FDF7ECFEFF
:10585000C01B8642D1D8EDE71BB1E38E9BB2012B72
:1058600006D115F8013B1373E38E013B9BB2E3862F
:10587000E38E9BB2002BC3D023689A68920703D5AE
:1058800015F8012B1A73EFE7002ED3D0731CEFD05D
:10589000FDF7CAFEC01B8642EAD8CBE7A36833B93E
:1058A00001932368DA6801929B680193019BA36AC4
:1058B000B3F5005F01BF2268136843F4805313609F
:1058C000606D003018BF0120B5E70220B3E7022069
:1058D000B7E72DE9F04385B099460023ADF80A30CB
:1058E00090F850300C9E012B04460D46904600F077
:1058F0004581012380F85030FDF796FE94F8513031
:105900006168DBB2012B07460AD0B1F5827F40F017
:105910003381A268002A40F02F81042B40F02C81B3
:10592000002D00F01B81B8F1000F00F01781B9F1D4
:10593000000F00F0138194F85130C4F83880012B27
:1059400004BF052384F85130002363652364636436
:10595000A36AA4F83E90B3F5005FA4F83C902563D9
:10596000A4F83690A4F83490236809D11A6822F478
:1059700000521204120C1A601A6842F400521A60A3
:105980001A6850065EBF1A6842F040021A60E26868
:10599000B2F5006F6BD119B1E28E92B2012A06D135
:1059A00035F8022BDA60E38E013B9BB2E3864FF0C1
:1059B0000109E38E9BB2B3B9E38F9BB29BB9A36A93
:1059C000B3F5005F40F0AE800122009733461146E8
:1059D0002046FFF745FE002800F09D80636D43F0F0
:1059E0000203636535E0B9F1000F1BD0E38E9BB273
:1059F000C3B122689368990714D535F8023BD36088
:105A0000E38E013B9BB2E386E38E1FFA83F9B9F183
:105A1000000F29D1A16AB1F5005F03D1116841F4EB
:105A200080511160E38F9BB263B123689A68D207FB
:105A300008D5DB6828F8023BE38F013B9BB2E38784
:105A40004FF00109701CB4D0FDF7EEFDC01B86427B
:105A5000AFD80325012384F85130002384F8503057
:105A6000284605B0BDE8F0834FF00009DAE719B128
:105A7000E28E92B2012A06D115F8012B1A73E38E39
:105A8000013B9BB2E3864FF00109E38E9BB21BB949
:105A9000E38F9BB2002B92D0B9F1000F21D0E38E9F
:105AA0009BB2F3B123689A6891071AD529781973C4
:105AB000E38E013B9BB2E386E38E1FFA83F96A1CF7
:105AC000B9F1000F0AD1A16AB1F5005F04D12068D5
:105AD000016841F480510160154602E015464FF01F
